{
  "contractName": "ShyPanda",
  "abi": [
    {
      "constant": true,
      "inputs": [
        {
          "name": "",
          "type": "address"
        },
        {
          "name": "",
          "type": "uint256"
        }
      ],
      "name": "petsByAssociation",
      "outputs": [
        {
          "name": "",
          "type": "uint256"
        }
      ],
      "payable": false,
      "stateMutability": "view",
      "type": "function",
      "signature": "0x19725af7"
    },
    {
      "constant": true,
      "inputs": [
        {
          "name": "",
          "type": "address"
        }
      ],
      "name": "balances",
      "outputs": [
        {
          "name": "",
          "type": "uint256"
        }
      ],
      "payable": false,
      "stateMutability": "view",
      "type": "function",
      "signature": "0x27e235e3"
    },
    {
      "constant": false,
      "inputs": [],
      "name": "renounceOwnership",
      "outputs": [],
      "payable": false,
      "stateMutability": "nonpayable",
      "type": "function",
      "signature": "0x715018a6"
    },
    {
      "constant": true,
      "inputs": [],
      "name": "owner",
      "outputs": [
        {
          "name": "",
          "type": "address"
        }
      ],
      "payable": false,
      "stateMutability": "view",
      "type": "function",
      "signature": "0x8da5cb5b"
    },
    {
      "constant": true,
      "inputs": [],
      "name": "isOwner",
      "outputs": [
        {
          "name": "",
          "type": "bool"
        }
      ],
      "payable": false,
      "stateMutability": "view",
      "type": "function",
      "signature": "0x8f32d59b"
    },
    {
      "constant": true,
      "inputs": [
        {
          "name": "",
          "type": "address"
        }
      ],
      "name": "associations",
      "outputs": [
        {
          "name": "",
          "type": "string"
        }
      ],
      "payable": false,
      "stateMutability": "view",
      "type": "function",
      "signature": "0x95d1d4c5"
    },
    {
      "constant": true,
      "inputs": [
        {
          "name": "",
          "type": "uint256"
        }
      ],
      "name": "pets",
      "outputs": [
        {
          "name": "name",
          "type": "string"
        },
        {
          "name": "bio",
          "type": "string"
        },
        {
          "name": "isActive",
          "type": "bool"
        },
        {
          "name": "needed",
          "type": "uint256"
        },
        {
          "name": "donated",
          "type": "uint256"
        },
        {
          "name": "association",
          "type": "address"
        }
      ],
      "payable": false,
      "stateMutability": "view",
      "type": "function",
      "signature": "0xcfb869bf"
    },
    {
      "constant": false,
      "inputs": [
        {
          "name": "newOwner",
          "type": "address"
        }
      ],
      "name": "transferOwnership",
      "outputs": [],
      "payable": false,
      "stateMutability": "nonpayable",
      "type": "function",
      "signature": "0xf2fde38b"
    },
    {
      "payable": true,
      "stateMutability": "payable",
      "type": "fallback"
    },
    {
      "anonymous": false,
      "inputs": [
        {
          "indexed": false,
          "name": "_petId",
          "type": "uint256"
        },
        {
          "indexed": false,
          "name": "_from",
          "type": "address"
        },
        {
          "indexed": false,
          "name": "_amount",
          "type": "uint256"
        }
      ],
      "name": "DonationLog",
      "type": "event",
      "signature": "0xb956d71957ceb93a4586881c37a2e6f556211fdf16039e60b859532c1e5ffed7"
    },
    {
      "anonymous": false,
      "inputs": [
        {
          "indexed": false,
          "name": "_petId",
          "type": "uint256"
        }
      ],
      "name": "PetAddedLog",
      "type": "event",
      "signature": "0xe08fdd748107d1e1758089582e76fa5329ff6d6c5f18e51b56a4ba95300b0621"
    },
    {
      "anonymous": false,
      "inputs": [
        {
          "indexed": false,
          "name": "_address",
          "type": "address"
        },
        {
          "indexed": false,
          "name": "name",
          "type": "string"
        }
      ],
      "name": "AssociationAddedLog",
      "type": "event",
      "signature": "0x817fd79a32b4347b694c4322c327c854700279d0b76c16d7e83f1c25cfe5fb94"
    },
    {
      "anonymous": false,
      "inputs": [
        {
          "indexed": false,
          "name": "_petId",
          "type": "uint256"
        }
      ],
      "name": "PetUpdatedLog",
      "type": "event",
      "signature": "0xcb1bf78495725d0980b2e26a05ca7360c8a9c280935f2175602f3645bd8cb1ad"
    },
    {
      "anonymous": false,
      "inputs": [
        {
          "indexed": true,
          "name": "previousOwner",
          "type": "address"
        },
        {
          "indexed": true,
          "name": "newOwner",
          "type": "address"
        }
      ],
      "name": "OwnershipTransferred",
      "type": "event",
      "signature": "0x8be0079c531659141344cd1fd0a4f28419497f9722a3daafe3b4186f6b6457e0"
    },
    {
      "constant": false,
      "inputs": [],
      "name": "toggleCircuitBreaker",
      "outputs": [],
      "payable": false,
      "stateMutability": "nonpayable",
      "type": "function",
      "signature": "0xd5eb63cc"
    },
    {
      "constant": false,
      "inputs": [
        {
          "name": "_address",
          "type": "address"
        },
        {
          "name": "_name",
          "type": "string"
        }
      ],
      "name": "addAssociation",
      "outputs": [],
      "payable": false,
      "stateMutability": "nonpayable",
      "type": "function",
      "signature": "0xeeb89148"
    },
    {
      "constant": false,
      "inputs": [
        {
          "name": "_petId",
          "type": "uint256"
        }
      ],
      "name": "donate",
      "outputs": [],
      "payable": true,
      "stateMutability": "payable",
      "type": "function",
      "signature": "0xf14faf6f"
    },
    {
      "constant": false,
      "inputs": [],
      "name": "withdraw",
      "outputs": [],
      "payable": false,
      "stateMutability": "nonpayable",
      "type": "function",
      "signature": "0x3ccfd60b"
    },
    {
      "constant": false,
      "inputs": [
        {
          "name": "_name",
          "type": "string"
        },
        {
          "name": "_photos",
          "type": "string[]"
        },
        {
          "name": "_bio",
          "type": "string"
        },
        {
          "name": "_needed",
          "type": "uint256"
        }
      ],
      "name": "addPet",
      "outputs": [
        {
          "name": "",
          "type": "uint256"
        }
      ],
      "payable": false,
      "stateMutability": "nonpayable",
      "type": "function",
      "signature": "0x2fbe14b6"
    },
    {
      "constant": true,
      "inputs": [],
      "name": "getPageNumber",
      "outputs": [
        {
          "name": "",
          "type": "uint256"
        }
      ],
      "payable": false,
      "stateMutability": "view",
      "type": "function",
      "signature": "0x0b955e97"
    },
    {
      "constant": true,
      "inputs": [
        {
          "name": "page",
          "type": "uint256"
        }
      ],
      "name": "getPetsPage",
      "outputs": [
        {
          "name": "petIds",
          "type": "uint256[]"
        },
        {
          "name": "petNames",
          "type": "string[]"
        },
        {
          "name": "petBios",
          "type": "string[]"
        },
        {
          "name": "petNeeded",
          "type": "uint256[]"
        },
        {
          "name": "petDonated",
          "type": "uint256[]"
        },
        {
          "name": "associationAddresses",
          "type": "address[]"
        },
        {
          "name": "photos",
          "type": "string[]"
        }
      ],
      "payable": false,
      "stateMutability": "view",
      "type": "function",
      "signature": "0x14833e82"
    },
    {
      "constant": false,
      "inputs": [
        {
          "name": "_petId",
          "type": "uint256"
        },
        {
          "name": "_name",
          "type": "string"
        }
      ],
      "name": "updatePetName",
      "outputs": [],
      "payable": false,
      "stateMutability": "nonpayable",
      "type": "function",
      "signature": "0xb6a8de19"
    },
    {
      "constant": false,
      "inputs": [
        {
          "name": "_petId",
          "type": "uint256"
        },
        {
          "name": "_bio",
          "type": "string"
        }
      ],
      "name": "updatePetBio",
      "outputs": [],
      "payable": false,
      "stateMutability": "nonpayable",
      "type": "function",
      "signature": "0xd3caf22f"
    },
    {
      "constant": false,
      "inputs": [
        {
          "name": "_petId",
          "type": "uint256"
        },
        {
          "name": "_isActive",
          "type": "bool"
        }
      ],
      "name": "setPetActive",
      "outputs": [],
      "payable": false,
      "stateMutability": "nonpayable",
      "type": "function",
      "signature": "0xfd299ddb"
    },
    {
      "constant": false,
      "inputs": [
        {
          "name": "_petId",
          "type": "uint256"
        },
        {
          "name": "_hash",
          "type": "string"
        }
      ],
      "name": "addPetPhoto",
      "outputs": [],
      "payable": false,
      "stateMutability": "nonpayable",
      "type": "function",
      "signature": "0xb0f07fe4"
    }
  ],
  "bytecode": "0x6080604052600a600060146101000a81548160ff021916908360ff160217905550336000806101000a81548173ffffffffffffffffffffffffffffffffffffffff021916908373ffffffffffffffffffffffffffffffffffffffff1602179055506000809054906101000a900473ffffffffffffffffffffffffffffffffffffffff1673ffffffffffffffffffffffffffffffffffffffff16600073ffffffffffffffffffffffffffffffffffffffff167f8be0079c531659141344cd1fd0a4f28419497f9722a3daafe3b4186f6b6457e060405160405180910390a3613379806100eb6000396000f3fe608060405260043610610131576000357c01000000000000000000000000000000000000000000000000000000009004806395d1d4c5116100bd578063d5eb63cc11610081578063d5eb63cc1461040f578063eeb8914814610426578063f14faf6f1461044f578063f2fde38b1461046b578063fd299ddb1461049457610131565b806395d1d4c514610315578063b0f07fe414610352578063b6a8de191461037b578063cfb869bf146103a4578063d3caf22f146103e657610131565b80632fbe14b6116101045780632fbe14b6146102545780633ccfd60b14610291578063715018a6146102a85780638da5cb5b146102bf5780638f32d59b146102ea57610131565b80630b955e971461016c57806314833e821461019757806319725af7146101da57806327e235e314610217575b6040517f08c379a000000000000000000000000000000000000000000000000000000000815260040161016390612f3f565b60405180910390fd5b34801561017857600080fd5b506101816104bd565b60405161018e919061307f565b60405180910390f35b3480156101a357600080fd5b506101be60048036036101b991908101906127be565b610533565b6040516101d19796959493929190612df3565b60405180910390f35b3480156101e657600080fd5b5061020160048036036101fc91908101906126d7565b610d6a565b60405161020e919061307f565b60405180910390f35b34801561022357600080fd5b5061023e60048036036102399190810190612656565b610d98565b60405161024b919061307f565b60405180910390f35b34801561026057600080fd5b5061027b60048036036102769190810190612713565b610db0565b604051610288919061307f565b60405180910390f35b34801561029d57600080fd5b506102a66110c3565b005b3480156102b457600080fd5b506102bd611211565b005b3480156102cb57600080fd5b506102d4611317565b6040516102e19190612da6565b60405180910390f35b3480156102f657600080fd5b506102ff611340565b60405161030c9190612e93565b60405180910390f35b34801561032157600080fd5b5061033c60048036036103379190810190612656565b611397565b6040516103499190612eae565b60405180910390f35b34801561035e57600080fd5b5061037960048036036103749190810190612823565b611447565b005b34801561038757600080fd5b506103a2600480360361039d9190810190612823565b6115a8565b005b3480156103b057600080fd5b506103cb60048036036103c691908101906127be565b6116d9565b6040516103dd96959493929190612ed0565b60405180910390f35b3480156103f257600080fd5b5061040d60048036036104089190810190612823565b61187f565b005b34801561041b57600080fd5b506104246119b0565b005b34801561043257600080fd5b5061044d6004803603610448919081019061267f565b611a23565b005b610469600480360361046491908101906127be565b611be5565b005b34801561047757600080fd5b50610492600480360361048d9190810190612656565b611d9b565b005b3480156104a057600080fd5b506104bb60048036036104b691908101906127e7565b611dee565b005b6000806104ea600060149054906101000a900460ff1660ff16600380549050611f1590919063ffffffff16565b90506000610518600060149054906101000a900460ff1660ff16600380549050611f7190919063ffffffff16565b1415610525576000610528565b60015b60ff16810191505090565b60608060608060608060606000881015610582576040517f08c379a000000000000000000000000000000000000000000000000000000000815260040161057990612f5f565b60405180910390fd5b600380549050600060149054906101000a900460ff1660ff1689021061071b5760006040519080825280602002602001820160405280156105d25781602001602082028038833980820191505090505b509650600060405190808252806020026020018201604052801561060a57816020015b60608152602001906001900390816105f55790505b509550600060405190808252806020026020018201604052801561064257816020015b606081526020019060019003908161062d5790505b50945060006040519080825280602002602001820160405280156106755781602001602082028038833980820191505090505b50935060006040519080825280602002602001820160405280156106a85781602001602082028038833980820191505090505b50925060006040519080825280602002602001820160405280156106db5781602001602082028038833980820191505090505b509150600060405190808252806020026020018201604052801561071357816020015b60608152602001906001900390816106fe5790505b509050610d5f565b600061076c600161075e61074a600060149054906101000a900460ff1660ff168d611fc890919063ffffffff16565b60038054905061203890919063ffffffff16565b61203890919063ffffffff16565b905060008060149054906101000a900460ff1660ff1690506001600060149054906101000a900460ff160360ff168210156107b8576107b560018361208e90919063ffffffff16565b90505b806040519080825280602002602001820160405280156107e75781602001602082028038833980820191505090505b5098508060405190808252806020026020018201604052801561081e57816020015b60608152602001906001900390816108095790505b5097508060405190808252806020026020018201604052801561085557816020015b60608152602001906001900390816108405790505b509650806040519080825280602002602001820160405280156108875781602001602082028038833980820191505090505b509550806040519080825280602002602001820160405280156108b95781602001602082028038833980820191505090505b509450806040519080825280602002602001820160405280156108eb5781602001602082028038833980820191505090505b5093508060405190808252806020026020018201604052801561092257816020015b606081526020019060019003908161090d5790505b50925060008090505b81811015610d5b5761093b612211565b6003610950838661203890919063ffffffff16565b8154811061095a57fe5b90600052602060002090600702016040518060e0016040529081600082018054600181600116156101000203166002900480601f016020809104026020016040519081016040528092919081815260200182805460018160011615610100020316600290048015610a0c5780601f106109e157610100808354040283529160200191610a0c565b820191906000526020600020905b8154815290600101906020018083116109ef57829003601f168201915b5050505050815260200160018201805480602002602001604051908101604052809291908181526020016000905b82821015610af6578382906000526020600020018054600181600116156101000203166002900480601f016020809104026020016040519081016040528092919081815260200182805460018160011615610100020316600290048015610ae25780601f10610ab757610100808354040283529160200191610ae2565b820191906000526020600020905b815481529060010190602001808311610ac557829003601f168201915b505050505081526020019060010190610a3a565b505050508152602001600282018054600181600116156101000203166002900480601f016020809104026020016040519081016040528092919081815260200182805460018160011615610100020316600290048015610b975780601f10610b6c57610100808354040283529160200191610b97565b820191906000526020600020905b815481529060010190602001808311610b7a57829003601f168201915b505050505081526020016003820160009054906101000a900460ff1615151515815260200160048201548152602001600582015481526020016006820160009054906101000a900473ffffffffffffffffffffffffffffffffffffffff1673ffffffffffffffffffffffffffffffffffffffff1673ffffffffffffffffffffffffffffffffffffffff16815250509050610c3a828561203890919063ffffffff16565b8b8381518110610c4657fe5b60200260200101818152505080600001518a8381518110610c6357fe5b60200260200101819052508060400151898381518110610c7f57fe5b60200260200101819052508060800151888381518110610c9b57fe5b6020026020010181815250508060a00151878381518110610cb857fe5b6020026020010181815250508060c00151868381518110610cd557fe5b602002602001019073ffffffffffffffffffffffffffffffffffffffff16908173ffffffffffffffffffffffffffffffffffffffff16815250508060200151600081518110610d2057fe5b6020026020010151858381518110610d3457fe5b6020026020010181905250610d5360018361208e90919063ffffffff16565b91505061092b565b5050505b919395979092949650565b60046020528160005260406000208181548110610d8357fe5b90600052602060002001600091509150505481565b60016020528060005260406000206000915090505481565b600080600260003373ffffffffffffffffffffffffffffffffffffffff1673ffffffffffffffffffffffffffffffffffffffff1681526020019081526020016000208054600181600116156101000203166002900490501415610e1257600080fd5b600560009054906101000a900460ff1615610e2c57600080fd5b600085511415610e3b57600080fd5b600a83511015610e4a57600080fd5b610e52612211565b6040518060e00160405280878152602001868152602001858152602001600115158152602001610e93670de0b6b3a764000086611fc890919063ffffffff16565b8152602001600081526020013373ffffffffffffffffffffffffffffffffffffffff1681525090506000600382908060018154018082558091505090600182039060005260206000209060070201600090919290919091506000820151816000019080519060200190610f07929190612266565b506020820151816001019080519060200190610f249291906122e6565b506040820151816002019080519060200190610f41929190612266565b5060608201518160030160006101000a81548160ff0219169083151502179055506080820151816004015560a0820151816005015560c08201518160060160006101000a81548173ffffffffffffffffffffffffffffffffffffffff021916908373ffffffffffffffffffffffffffffffffffffffff160217905550505090506000600460003373ffffffffffffffffffffffffffffffffffffffff1673ffffffffffffffffffffffffffffffffffffffff16815260200190815260200160002090508082908060018154018082558091505090600182039060005260206000200160009091929091909150555080600460003373ffffffffffffffffffffffffffffffffffffffff1673ffffffffffffffffffffffffffffffffffffffff16815260200190815260200160002090805461107d929190612346565b507fe08fdd748107d1e1758089582e76fa5329ff6d6c5f18e51b56a4ba95300b0621826040516110ad919061307f565b60405180910390a1819350505050949350505050565b6000600260003373ffffffffffffffffffffffffffffffffffffffff1673ffffffffffffffffffffffffffffffffffffffff168152602001908152602001600020805460018160011615610100020316600290049050141561112457600080fd5b600560009054906101000a900460ff161561113e57600080fd5b6000600160003373ffffffffffffffffffffffffffffffffffffffff1673ffffffffffffffffffffffffffffffffffffffff1681526020019081526020016000205490506000600160003373ffffffffffffffffffffffffffffffffffffffff1673ffffffffffffffffffffffffffffffffffffffff168152602001908152602001600020819055503373ffffffffffffffffffffffffffffffffffffffff166108fc829081150290604051600060405180830381858888f1935050505015801561120d573d6000803e3d6000fd5b5050565b611219611340565b611258576040517f08c379a000000000000000000000000000000000000000000000000000000000815260040161124f9061305f565b60405180910390fd5b600073ffffffffffffffffffffffffffffffffffffffff166000809054906101000a900473ffffffffffffffffffffffffffffffffffffffff1673ffffffffffffffffffffffffffffffffffffffff167f8be0079c531659141344cd1fd0a4f28419497f9722a3daafe3b4186f6b6457e060405160405180910390a360008060006101000a81548173ffffffffffffffffffffffffffffffffffffffff021916908373ffffffffffffffffffffffffffffffffffffffff160217905550565b60008060009054906101000a900473ffffffffffffffffffffffffffffffffffffffff16905090565b60008060009054906101000a900473ffffffffffffffffffffffffffffffffffffffff1673ffffffffffffffffffffffffffffffffffffffff163373ffffffffffffffffffffffffffffffffffffffff1614905090565b60026020528060005260406000206000915090508054600181600116156101000203166002900480601f01602080910402602001604051908101604052809291908181526020018280546001816001161561010002031660029004801561143f5780601f106114145761010080835404028352916020019161143f565b820191906000526020600020905b81548152906001019060200180831161142257829003601f168201915b505050505081565b600560009054906101000a900460ff161561146157600080fd5b8260008110158015611477575060038054905081105b61148057600080fd5b3373ffffffffffffffffffffffffffffffffffffffff16600382815481106114a457fe5b906000526020600020906007020160060160009054906101000a900473ffffffffffffffffffffffffffffffffffffffff1673ffffffffffffffffffffffffffffffffffffffff16146114f657600080fd5b600083839050141561150757600080fd5b60006003858154811061151657fe5b9060005260206000209060070201905080600101848490918060018154018082558091505090600182039060005260206000200160009091929390919293909192909192509190611568929190612398565b50507fcb1bf78495725d0980b2e26a05ca7360c8a9c280935f2175602f3645bd8cb1ad85604051611599919061307f565b60405180910390a15050505050565b600560009054906101000a900460ff16156115c257600080fd5b82600081101580156115d8575060038054905081105b6115e157600080fd5b3373ffffffffffffffffffffffffffffffffffffffff166003828154811061160557fe5b906000526020600020906007020160060160009054906101000a900473ffffffffffffffffffffffffffffffffffffffff1673ffffffffffffffffffffffffffffffffffffffff161461165757600080fd5b600083839050141561166857600080fd5b60006003858154811061167757fe5b90600052602060002090600702019050838382600001919061169a929190612398565b507fcb1bf78495725d0980b2e26a05ca7360c8a9c280935f2175602f3645bd8cb1ad856040516116ca919061307f565b60405180910390a15050505050565b600381815481106116e657fe5b9060005260206000209060070201600091509050806000018054600181600116156101000203166002900480601f0160208091040260200160405190810160405280929190818152602001828054600181600116156101000203166002900480156117925780601f1061176757610100808354040283529160200191611792565b820191906000526020600020905b81548152906001019060200180831161177557829003601f168201915b505050505090806002018054600181600116156101000203166002900480601f0160208091040260200160405190810160405280929190818152602001828054600181600116156101000203166002900480156118305780601f1061180557610100808354040283529160200191611830565b820191906000526020600020905b81548152906001019060200180831161181357829003601f168201915b5050505050908060030160009054906101000a900460ff16908060040154908060050154908060060160009054906101000a900473ffffffffffffffffffffffffffffffffffffffff16905086565b600560009054906101000a900460ff161561189957600080fd5b82600081101580156118af575060038054905081105b6118b857600080fd5b3373ffffffffffffffffffffffffffffffffffffffff16600382815481106118dc57fe5b906000526020600020906007020160060160009054906101000a900473ffffffffffffffffffffffffffffffffffffffff1673ffffffffffffffffffffffffffffffffffffffff161461192e57600080fd5b600a83839050101561193f57600080fd5b60006003858154811061194e57fe5b906000526020600020906007020190508383826002019190611971929190612398565b507fcb1bf78495725d0980b2e26a05ca7360c8a9c280935f2175602f3645bd8cb1ad856040516119a1919061307f565b60405180910390a15050505050565b6119b8611340565b6119f7576040517f08c379a00000000000000000000000000000000000000000000000000000000081526004016119ee9061305f565b60405180910390fd5b600560009054906101000a900460ff1615600560006101000a81548160ff021916908315150217905550565b611a2b611340565b611a6a576040517f08c379a0000000000000000000000000000000000000000000000000000000008152600401611a619061305f565b60405180910390fd5b6000828290501415611a7b57600080fd5b6000600260008573ffffffffffffffffffffffffffffffffffffffff1673ffffffffffffffffffffffffffffffffffffffff16815260200190815260200160002080546001816001161561010002031660029004905014611b11576040517f08c379a0000000000000000000000000000000000000000000000000000000008152600401611b0890612f7f565b60405180910390fd5b8181600260008673ffffffffffffffffffffffffffffffffffffffff1673ffffffffffffffffffffffffffffffffffffffff1681526020019081526020016000209190611b5f929190612398565b506000600160008573ffffffffffffffffffffffffffffffffffffffff1673ffffffffffffffffffffffffffffffffffffffff168152602001908152602001600020819055507f817fd79a32b4347b694c4322c327c854700279d0b76c16d7e83f1c25cfe5fb94838383604051611bd893929190612dc1565b60405180910390a1505050565b600560009054906101000a900460ff1615611bff57600080fd5b60008110158015611c14575060038054905081105b611c1d57600080fd5b600060038281548110611c2c57fe5b90600052602060002090600702019050611c5334826005015461208e90919063ffffffff16565b8160050181905550611cd134600160008460060160009054906101000a900473ffffffffffffffffffffffffffffffffffffffff1673ffffffffffffffffffffffffffffffffffffffff1673ffffffffffffffffffffffffffffffffffffffff1681526020019081526020016000205461208e90919063ffffffff16565b600160008360060160009054906101000a900473ffffffffffffffffffffffffffffffffffffffff1673ffffffffffffffffffffffffffffffffffffffff1673ffffffffffffffffffffffffffffffffffffffff168152602001908152602001600020819055507fb956d71957ceb93a4586881c37a2e6f556211fdf16039e60b859532c1e5ffed7828260060160009054906101000a900473ffffffffffffffffffffffffffffffffffffffff1634604051611d8f9392919061309a565b60405180910390a15050565b611da3611340565b611de2576040517f08c379a0000000000000000000000000000000000000000000000000000000008152600401611dd99061305f565b60405180910390fd5b611deb816120e3565b50565b600560009054906101000a900460ff1615611e0857600080fd5b8160008110158015611e1e575060038054905081105b611e2757600080fd5b3373ffffffffffffffffffffffffffffffffffffffff1660038281548110611e4b57fe5b906000526020600020906007020160060160009054906101000a900473ffffffffffffffffffffffffffffffffffffffff1673ffffffffffffffffffffffffffffffffffffffff1614611e9d57600080fd5b600060038481548110611eac57fe5b90600052602060002090600702019050828160030160006101000a81548160ff0219169083151502179055507fcb1bf78495725d0980b2e26a05ca7360c8a9c280935f2175602f3645bd8cb1ad84604051611f07919061307f565b60405180910390a150505050565b6000808211611f59576040517f08c379a0000000000000000000000000000000000000000000000000000000008152600401611f5090612fff565b60405180910390fd5b6000828481611f6457fe5b0490508091505092915050565b600080821415611fb6576040517f08c379a0000000000000000000000000000000000000000000000000000000008152600401611fad9061301f565b60405180910390fd5b818381611fbf57fe5b06905092915050565b600080831415611fdb5760009050612032565b6000828402905082848281611fec57fe5b041461202d576040517f08c379a00000000000000000000000000000000000000000000000000000000081526004016120249061303f565b60405180910390fd5b809150505b92915050565b60008282111561207d576040517f08c379a000000000000000000000000000000000000000000000000000000000815260040161207490612fdf565b60405180910390fd5b600082840390508091505092915050565b6000808284019050838110156120d9576040517f08c379a00000000000000000000000000000000000000000000000000000000081526004016120d090612fbf565b60405180910390fd5b8091505092915050565b600073ffffffffffffffffffffffffffffffffffffffff168173ffffffffffffffffffffffffffffffffffffffff161415612153576040517f08c379a000000000000000000000000000000000000000000000000000000000815260040161214a90612f9f565b60405180910390fd5b8073ffffffffffffffffffffffffffffffffffffffff166000809054906101000a900473ffffffffffffffffffffffffffffffffffffffff1673ffffffffffffffffffffffffffffffffffffffff167f8be0079c531659141344cd1fd0a4f28419497f9722a3daafe3b4186f6b6457e060405160405180910390a3806000806101000a81548173ffffffffffffffffffffffffffffffffffffffff021916908373ffffffffffffffffffffffffffffffffffffffff16021790555050565b6040518060e001604052806060815260200160608152602001606081526020016000151581526020016000815260200160008152602001600073ffffffffffffffffffffffffffffffffffffffff1681525090565b828054600181600116156101000203166002900490600052602060002090601f016020900481019282601f106122a757805160ff19168380011785556122d5565b828001600101855582156122d5579182015b828111156122d45782518255916020019190600101906122b9565b5b5090506122e29190612418565b5090565b828054828255906000526020600020908101928215612335579160200282015b82811115612334578251829080519060200190612324929190612266565b5091602001919060010190612306565b5b509050612342919061243d565b5090565b8280548282559060005260206000209081019282156123875760005260206000209182015b8281111561238657825482559160010191906001019061236b565b5b5090506123949190612418565b5090565b828054600181600116156101000203166002900490600052602060002090601f016020900481019282601f106123d957803560ff1916838001178555612407565b82800160010185558215612407579182015b828111156124065782358255916020019190600101906123eb565b5b5090506124149190612418565b5090565b61243a91905b8082111561243657600081600090555060010161241e565b5090565b90565b61246691905b8082111561246257600081816124599190612469565b50600101612443565b5090565b90565b50805460018160011615610100020316600290046000825580601f1061248f57506124ae565b601f0160209004906000526020600020908101906124ad9190612418565b5b50565b6000813590506124c0816132f1565b92915050565b600082601f8301126124d757600080fd5b81356124ea6124e5826130fe565b6130d1565b9150818183526020840193506020810190508360005b8381101561253057813586016125168882612599565b845260208401935060208301925050600181019050612500565b5050505092915050565b60008135905061254981613308565b92915050565b60008083601f84011261256157600080fd5b8235905067ffffffffffffffff81111561257a57600080fd5b60208301915083600182028301111561259257600080fd5b9250929050565b600082601f8301126125aa57600080fd5b81356125bd6125b882613126565b6130d1565b915080825260208301602083018583830111156125d957600080fd5b6125e483828461329e565b50505092915050565b600082601f8301126125fe57600080fd5b813561261161260c82613152565b6130d1565b9150808252602083016020830185838301111561262d57600080fd5b61263883828461329e565b50505092915050565b6000813590506126508161331f565b92915050565b60006020828403121561266857600080fd5b6000612676848285016124b1565b91505092915050565b60008060006040848603121561269457600080fd5b60006126a2868287016124b1565b935050602084013567ffffffffffffffff8111156126bf57600080fd5b6126cb8682870161254f565b92509250509250925092565b600080604083850312156126ea57600080fd5b60006126f8858286016124b1565b925050602061270985828601612641565b9150509250929050565b6000806000806080858703121561272957600080fd5b600085013567ffffffffffffffff81111561274357600080fd5b61274f878288016125ed565b945050602085013567ffffffffffffffff81111561276c57600080fd5b612778878288016124c6565b935050604085013567ffffffffffffffff81111561279557600080fd5b6127a1878288016125ed565b92505060606127b287828801612641565b91505092959194509250565b6000602082840312156127d057600080fd5b60006127de84828501612641565b91505092915050565b600080604083850312156127fa57600080fd5b600061280885828601612641565b92505060206128198582860161253a565b9150509250929050565b60008060006040848603121561283857600080fd5b600061284686828701612641565b935050602084013567ffffffffffffffff81111561286357600080fd5b61286f8682870161254f565b92509250509250925092565b600061288783836128bf565b60208301905092915050565b600061289f8383612a4a565b905092915050565b60006128b38383612d88565b60208301905092915050565b6128c881613256565b82525050565b6128d781613256565b82525050565b60006128e8826131ae565b6128f28185613201565b93506128fd8361317e565b8060005b8381101561292e578151612915888261287b565b9750612920836131da565b925050600181019050612901565b5085935050505092915050565b6000612946826131b9565b6129508185613212565b9350836020820285016129628561318e565b8060005b8581101561299e578484038952815161297f8582612893565b945061298a836131e7565b925060208a01995050600181019050612966565b50829750879550505050505092915050565b60006129bb826131c4565b6129c58185613223565b93506129d08361319e565b8060005b83811015612a015781516129e888826128a7565b97506129f3836131f4565b9250506001810190506129d4565b5085935050505092915050565b612a1781613268565b82525050565b6000612a298385613245565b9350612a3683858461329e565b612a3f836132e0565b840190509392505050565b6000612a55826131cf565b612a5f8185613234565b9350612a6f8185602086016132ad565b612a78816132e0565b840191505092915050565b6000612a8e826131cf565b612a988185613245565b9350612aa88185602086016132ad565b612ab1816132e0565b840191505092915050565b6000612ac9601683613245565b91507f66616c6c6261636b206e6f7420617661696c61626c65000000000000000000006000830152602082019050919050565b6000612b09601d83613245565b91507f50616765206e756d626572206d7573742062652030206f72206d6f72650000006000830152602082019050919050565b6000612b49601f83613245565b91507f54686973206173736f63696174696f6e20616c726561647920657869737473006000830152602082019050919050565b6000612b89602683613245565b91507f4f776e61626c653a206e6577206f776e657220697320746865207a65726f206160008301527f64647265737300000000000000000000000000000000000000000000000000006020830152604082019050919050565b6000612bef601b83613245565b91507f536166654d6174683a206164646974696f6e206f766572666c6f7700000000006000830152602082019050919050565b6000612c2f601e83613245565b91507f536166654d6174683a207375627472616374696f6e206f766572666c6f7700006000830152602082019050919050565b6000612c6f601a83613245565b91507f536166654d6174683a206469766973696f6e206279207a65726f0000000000006000830152602082019050919050565b6000612caf601883613245565b91507f536166654d6174683a206d6f64756c6f206279207a65726f00000000000000006000830152602082019050919050565b6000612cef602183613245565b91507f536166654d6174683a206d756c7469706c69636174696f6e206f766572666c6f60008301527f77000000000000000000000000000000000000000000000000000000000000006020830152604082019050919050565b6000612d55602083613245565b91507f4f776e61626c653a2063616c6c6572206973206e6f7420746865206f776e65726000830152602082019050919050565b612d9181613294565b82525050565b612da081613294565b82525050565b6000602082019050612dbb60008301846128ce565b92915050565b6000604082019050612dd660008301866128ce565b8181036020830152612de9818486612a1d565b9050949350505050565b600060e0820190508181036000830152612e0d818a6129b0565b90508181036020830152612e21818961293b565b90508181036040830152612e35818861293b565b90508181036060830152612e4981876129b0565b90508181036080830152612e5d81866129b0565b905081810360a0830152612e7181856128dd565b905081810360c0830152612e85818461293b565b905098975050505050505050565b6000602082019050612ea86000830184612a0e565b92915050565b60006020820190508181036000830152612ec88184612a83565b905092915050565b600060c0820190508181036000830152612eea8189612a83565b90508181036020830152612efe8188612a83565b9050612f0d6040830187612a0e565b612f1a6060830186612d97565b612f276080830185612d97565b612f3460a08301846128ce565b979650505050505050565b60006020820190508181036000830152612f5881612abc565b9050919050565b60006020820190508181036000830152612f7881612afc565b9050919050565b60006020820190508181036000830152612f9881612b3c565b9050919050565b60006020820190508181036000830152612fb881612b7c565b9050919050565b60006020820190508181036000830152612fd881612be2565b9050919050565b60006020820190508181036000830152612ff881612c22565b9050919050565b6000602082019050818103600083015261301881612c62565b9050919050565b6000602082019050818103600083015261303881612ca2565b9050919050565b6000602082019050818103600083015261305881612ce2565b9050919050565b6000602082019050818103600083015261307881612d48565b9050919050565b60006020820190506130946000830184612d97565b92915050565b60006060820190506130af6000830186612d97565b6130bc60208301856128ce565b6130c96040830184612d97565b949350505050565b6000604051905081810181811067ffffffffffffffff821117156130f457600080fd5b8060405250919050565b600067ffffffffffffffff82111561311557600080fd5b602082029050602081019050919050565b600067ffffffffffffffff82111561313d57600080fd5b601f19601f8301169050602081019050919050565b600067ffffffffffffffff82111561316957600080fd5b601f19601f8301169050602081019050919050565b6000819050602082019050919050565b6000819050602082019050919050565b6000819050602082019050919050565b600081519050919050565b600081519050919050565b600081519050919050565b600081519050919050565b6000602082019050919050565b6000602082019050919050565b6000602082019050919050565b600082825260208201905092915050565b600082825260208201905092915050565b600082825260208201905092915050565b600082825260208201905092915050565b600082825260208201905092915050565b600061326182613274565b9050919050565b60008115159050919050565b600073ffffffffffffffffffffffffffffffffffffffff82169050919050565b6000819050919050565b82818337600083830152505050565b60005b838110156132cb5780820151818401526020810190506132b0565b838111156132da576000848401525b50505050565b6000601f19601f8301169050919050565b6132fa81613256565b811461330557600080fd5b50565b61331181613268565b811461331c57600080fd5b50565b61332881613294565b811461333357600080fd5b5056fea365627a7a723058203bfcc78d0977a3a1ca0ce7422d94550a1e6fdeadcc205a886bc4de1b6461f34f6c6578706572696d656e74616cf564736f6c634300050a0040",
  "source": "pragma solidity ^0.5.0;\npragma experimental ABIEncoderV2;\n\nimport \"../node_modules/openzeppelin-solidity/contracts/math/SafeMath.sol\";\nimport \"../node_modules/openzeppelin-solidity/contracts/ownership/Ownable.sol\";\n\n/** \n* @title A contract to gather funds for Pets associations in developing countries.\n* @author Oscar Rene Flores Presidente\n*/ \ncontract ShyPanda is Ownable {\n    using SafeMath for uint;\n\n    uint8 private PETS_PER_PAGE = 10;\n\n    event DonationLog(uint _petId, address _from, uint _amount);\n    event PetAddedLog(uint _petId);\n    event AssociationAddedLog(address _address, string name);\n    event PetUpdatedLog(uint _petId);\n\n    /**\n    * @title A struct representing each of the pets \n    * @dev needed and donated represent how much this pet needs and how much it has been donated, respectively \n    */\n    struct Pet {\n        string name;\n        string[] photos;\n        string bio;\n        bool isActive;\n        uint needed;\n        uint donated;\n        address association;\n    }\n\n    // The balances of the associations\n    mapping(address => uint) public balances;\n\n    // These are our registered associations\n    mapping(address => string) public associations;\n\n    // All the pets\n    Pet[] public pets;\n\n    // Quick way to access pets by association\n    mapping(address => uint[]) public petsByAssociation;\n\n    // The circuit breaker flag\n    bool stopped;\n\n    /// Don't allow execution in case there is an emergency!\n    modifier stopIfEmergency() {\n        require(!stopped);\n        _;\n    }\n\n    /// Only allow execution in case of an emergency\n    modifier onlyIfEmergency() {\n        require(stopped);\n        _;\n    }\n\n    /// Only allow an address added as association...\n    modifier onlyAssociation() {\n        require(bytes(associations[msg.sender]).length != 0);\n        _;\n    }\n\n    /// Only allow the organization who originally submitted this pet...    \n    modifier onlyAssociationWithPet(uint _petId) {\n        require(_petId >= 0 && _petId < pets.length);\n        require(pets[_petId].association == msg.sender);\n        _;\n    }\n\n    /// @notice Toggles the circuit breaker to stop the contract from working in case of emergency\n    function toggleCircuitBreaker() onlyOwner public {\n        stopped = !stopped;\n    }\n\n    /// @notice Adds a new organization to the contract, addresses added as organizations will be allowed to submit pets and withdraw money.\n    /// @dev _name must not be empty and the address must not have been previously added as organization\n    /// @param _address The address to add as organization\n    /// @param _name The name of this organization\n    function addAssociation(address _address, string calldata _name) external onlyOwner {\n        require(bytes(_name).length != 0);\n        // We need to know that this address is not in use\n        require(bytes(associations[_address]).length == 0, \"This association already exists\");\n\n        associations[_address] = _name;\n        balances[_address] = 0;\n\n        emit AssociationAddedLog(_address, _name);\n    }\n\n    /// @notice Payable function that receives money for a given pet\n    /// @dev The value sent to this function will increase the balances for the organization in charge\n    /// @param _petId The id of the pet to which we would like to donate\n    function donate(uint _petId) external payable stopIfEmergency {\n        require(_petId >= 0 && _petId < pets.length);\n        Pet storage pet = pets[_petId];\n        pet.donated = pet.donated.add(msg.value);\n        balances[pet.association] = balances[pet.association].add(msg.value);\n\n        emit DonationLog(_petId, pet.association, msg.value);\n    }\n\n    /// @notice Allows organizations to withdraw their balance stored in the contract\n    function withdraw() external onlyAssociation stopIfEmergency {\n        uint balance = balances[msg.sender];\n        balances[msg.sender] = 0;\n        msg.sender.transfer(balance);\n    }\n\n    /// @notice Adds a new pet to the contract\n    /// @dev This pet will be linked to the association's address that originally called the function\n    /// @param _name The name of the pet\n    /// @param _photos An array of photo pointers, a pointer is a hash that refer to a file stored in IPFS\n    /// @param _bio A short bio for this\n    /// @param _needed How much Ether this pet will need to pay for their recovery, expressed in Ether\n    function addPet(string memory _name, string[] memory _photos, string memory _bio, uint _needed) \n    public \n    onlyAssociation\n    stopIfEmergency \n    returns (uint) {\n        require(bytes(_name).length != 0);\n        require(bytes(_bio).length >= 10);\n        Pet memory pet = Pet({\n            name: _name,\n            photos: _photos,\n            bio: _bio,\n            association: msg.sender,\n            needed: _needed.mul(1 ether),\n            donated: 0,\n            isActive: true\n        });\n\n        uint id = pets.push(pet);\n        uint[] storage associationPets = petsByAssociation[msg.sender];\n        associationPets.push(id);\n        petsByAssociation[msg.sender] = associationPets;\n\n        emit PetAddedLog(id);\n        return id;\n    }\n\n    /// @notice Returns the number of pages that can be queried effectively\n    function getPageNumber() external view returns (uint) {\n        uint pages = pets.length.div(PETS_PER_PAGE);\n        return pages + (pets.length.mod(PETS_PER_PAGE) != 0 ? 1 : 0);\n    }\n\n    /// @notice Retrieves the pets that belong to a given page, pagination is 1-based\n    /// @dev The pages are calculated in reverse order of the way they were added to the contract\n    /// @param page The page for which we would like to get the pets\n    function getPetsPage(uint page) external view returns(\n        uint[] memory petIds,\n        string[] memory petNames,\n        string[] memory petBios,\n        uint[] memory petNeeded,\n        uint[] memory petDonated,\n        address[] memory associationAddresses,\n        string[] memory photos) {\n            require(page >= 0, \"Page number must be 0 or more\");\n\n            if (page * PETS_PER_PAGE >= pets.length) {\n                petIds = new uint[](0);\n                petNames = new string[](0);\n                petBios = new string[](0);\n                petNeeded = new uint[](0);\n                petDonated = new uint[](0);\n                associationAddresses = new address[](0);\n                photos = new string[](0);\n            } else {\n                uint initialId = pets.length.sub(page.mul(PETS_PER_PAGE)).sub(1);\n                uint len = PETS_PER_PAGE;\n\n                if (initialId < PETS_PER_PAGE - 1) {\n                    len = initialId.add(1);\n                }\n\n                petIds = new uint[](len);\n                petNames = new string[](len);\n                petBios = new string[](len);\n                petNeeded = new uint[](len);\n                petDonated = new uint[](len);\n                associationAddresses = new address[](len);\n                photos = new string[](len);\n\n                uint count = 0;\n\n                while (count < len) {\n                    Pet memory pet = pets[initialId.sub(count)];\n                    petIds[count] = initialId.sub(count);\n                    petNames[count] = pet.name;\n                    petBios[count] = pet.bio;\n                    petNeeded[count] = pet.needed;\n                    petDonated[count] = pet.donated;\n                    associationAddresses[count] = pet.association;\n                    photos[count] = pet.photos[0];\n                    count = count.add(1);\n                }\n            }\n    }\n\n    /// @notice Allows an organization to update the pet's name\n    /// @param _petId The id of the pet whose name is about to be changed\n    /// @param _name The new name of this pet\n    function updatePetName(uint _petId, string calldata _name) external stopIfEmergency onlyAssociationWithPet(_petId) {\n        require(bytes(_name).length != 0);\n        Pet storage pet = pets[_petId];\n        pet.name = _name;\n        emit PetUpdatedLog(_petId);\n    }\n\n    /// @notice Allows an organization to update the pet's bio\n    /// @param _petId The id of the pet whose bio is about to be changed\n    /// @param _bio The new bio of this pet\n    function updatePetBio(uint _petId, string calldata _bio) external stopIfEmergency onlyAssociationWithPet(_petId) {\n        require(bytes(_bio).length >= 10);\n        Pet storage pet = pets[_petId];\n        pet.bio = _bio;\n        emit PetUpdatedLog(_petId);\n    }\n\n    /// @notice Allows an organization to update whether this pet is still under their care or not\n    /// @param _petId The id of the pet\n    /// @param _isActive Whether this pet is still under the organization's care or not\n    function setPetActive(uint _petId, bool _isActive) external stopIfEmergency onlyAssociationWithPet(_petId) {\n        Pet storage pet = pets[_petId];\n        pet.isActive = _isActive; \n        emit PetUpdatedLog(_petId);\n    }\n\n    /// @notice Allows an organization to add a photo for a pet\n    /// @param _petId The id of the pet\n    /// @param _hash The hash pointing to an IPFS file\n    function addPetPhoto(uint _petId, string calldata _hash) external stopIfEmergency onlyAssociationWithPet(_petId) {\n        require(bytes(_hash).length != 0);\n        Pet storage pet = pets[_petId];\n        pet.photos.push(_hash);\n\n        emit PetUpdatedLog(_petId);\n    }\n\n    function() external payable {\n        revert(\"fallback not available\");\n    }\n}",
  "sourcePath": "/Users/oscarr/Ethereum/shy_panda/contracts/ShyPanda.sol",
  "compiler": {
    "name": "solc",
    "version": "0.5.10+commit.5a6ea5b1.Emscripten.clang"
  },
  "schemaVersion": "3.0.6",
  "updatedAt": "2019-07-30T14:11:54.976Z",
  "devdoc": {
    "author": "Oscar Rene Flores Presidente",
    "methods": {
      "addAssociation(address,string)": {
        "details": "_name must not be empty and the address must not have been previously added as organization",
        "params": {
          "_address": "The address to add as organization",
          "_name": "The name of this organization"
        }
      },
      "addPet(string,string[],string,uint256)": {
        "details": "This pet will be linked to the association's address that originally called the function",
        "params": {
          "_bio": "A short bio for this",
          "_name": "The name of the pet",
          "_needed": "How much Ether this pet will need to pay for their recovery, expressed in Ether",
          "_photos": "An array of photo pointers, a pointer is a hash that refer to a file stored in IPFS"
        }
      },
      "addPetPhoto(uint256,string)": {
        "params": {
          "_hash": "The hash pointing to an IPFS file",
          "_petId": "The id of the pet"
        }
      },
      "donate(uint256)": {
        "details": "The value sent to this function will increase the balances for the organization in charge",
        "params": {
          "_petId": "The id of the pet to which we would like to donate"
        }
      },
      "getPetsPage(uint256)": {
        "details": "The pages are calculated in reverse order of the way they were added to the contract",
        "params": {
          "page": "The page for which we would like to get the pets"
        }
      },
      "isOwner()": {
        "details": "Returns true if the caller is the current owner."
      },
      "owner()": {
        "details": "Returns the address of the current owner."
      },
      "renounceOwnership()": {
        "details": "Leaves the contract without owner. It will not be possible to call `onlyOwner` functions anymore. Can only be called by the current owner.     * > Note: Renouncing ownership will leave the contract without an owner, thereby removing any functionality that is only available to the owner."
      },
      "setPetActive(uint256,bool)": {
        "params": {
          "_isActive": "Whether this pet is still under the organization's care or not",
          "_petId": "The id of the pet"
        }
      },
      "transferOwnership(address)": {
        "details": "Transfers ownership of the contract to a new account (`newOwner`). Can only be called by the current owner."
      },
      "updatePetBio(uint256,string)": {
        "params": {
          "_bio": "The new bio of this pet",
          "_petId": "The id of the pet whose bio is about to be changed"
        }
      },
      "updatePetName(uint256,string)": {
        "params": {
          "_name": "The new name of this pet",
          "_petId": "The id of the pet whose name is about to be changed"
        }
      }
    },
    "title": "A contract to gather funds for Pets associations in developing countries."
  },
  "userdoc": {
    "methods": {
      "addAssociation(address,string)": {
        "notice": "Adds a new organization to the contract, addresses added as organizations will be allowed to submit pets and withdraw money."
      },
      "addPet(string,string[],string,uint256)": {
        "notice": "Adds a new pet to the contract"
      },
      "addPetPhoto(uint256,string)": {
        "notice": "Allows an organization to add a photo for a pet"
      },
      "donate(uint256)": {
        "notice": "Payable function that receives money for a given pet"
      },
      "getPageNumber()": {
        "notice": "Returns the number of pages that can be queried effectively"
      },
      "getPetsPage(uint256)": {
        "notice": "Retrieves the pets that belong to a given page, pagination is 1-based"
      },
      "setPetActive(uint256,bool)": {
        "notice": "Allows an organization to update whether this pet is still under their care or not"
      },
      "toggleCircuitBreaker()": {
        "notice": "Toggles the circuit breaker to stop the contract from working in case of emergency"
      },
      "updatePetBio(uint256,string)": {
        "notice": "Allows an organization to update the pet's bio"
      },
      "updatePetName(uint256,string)": {
        "notice": "Allows an organization to update the pet's name"
      },
      "withdraw()": {
        "notice": "Allows organizations to withdraw their balance stored in the contract"
      }
    }
  }
}